:020000040800F2
:1030000000000120518B00083531000837310008DD
:10301000393100083B3100083D3100080000000054
:103020000000000000000000000000004131000826
:103030003F3100080000000043310008453100081E
:10304000493100084B3100084D3100084F3100086C
:10305000513100085331000855310008573100083C
:103060005B3100085F310008633100080000000098
:103070000000000000000000000000000000000050
:1030800000000000000000007531000877310008E2
:10309000793100087B3100087D3100087F3100085C
:1030A000813100088331000885310008873100082C
:1030B000893100088D3100088F31000891310008F6
:1030C00093310008953100089731000899310008C4
:1030D0009B3100089D310008A1310008A331000890
:1030E000A7310008A9310008AB310008AD31000854
:1030F000AF310008B1310008B3310008B531000824
:10310000B7310008B9310008BB310008BD310008F3
:10311000BF310008C1310008C5310008C7310008BF
:10312000C9310008CB310008CD310008CF3100088B
:043130005FF8000044
:103134007047FEE7FEE7FEE7FEE77047704770471B
:1031440000F0FEB87047704770477047704770478B
:10315400704700F0EDB800F0E5B800F0EBB800F00F
:10316400E3B87047704770477047704770477047BF
:103174007047704770477047704770477047704793
:103184007047704700F079B87047704770477047D0
:10319400704770477047704700F0C8B8704700F038
:1031A400BFB87047704770477047704770477047A3
:1031B40070477047704770477047704700F0BCB85D
:1031C40070477047704770477047704710B501F0FB
:1031D400F7FD164BD877DA7F1C46932A144B04D894
:1031E4001A78132A03D8013200E000221A701B78DF
:1031F400142B0AD1FF2003F073F9162003F07CF995
:1032040003F062F908B903F0C3F8E37F8D2B094B8F
:1032140003D9064AD27FAC2A03D91A7842F00102B4
:1032240002E01A7802F0FE021A7010BD6A1C002037
:10323400501C00205D1E0020024A53680133536075
:10324400704700BF501C002003F0ADBA00F065BD0C
:1032540003F0BAB808B500F08DFE014B987708BDAD
:103264006A1C002008B50820002100F08DFFBDE88D
:1032740008401020002100F087BF10B54FF08040B7
:10328400102105F07AFA002847D04FF08040102131
:1032940005F07EFA214C4FF08040002105F075F9CD
:1032A4004FF08040042105F07AF900F036FD237ACE
:1032B4000133DBB2032B237204BF00232372237A6E
:1032C4005BBB01F089FD154B5B899B0701D100F0C5
:1032D40069FE638903F00703012B01D1FFF7ACFFFB
:1032E400638903F01F03022B05D103F05CFA03F09A
:1032F4006BF8FFF7AFFF6389C3F30903032B01D115
:10330400FFF7B0FF6389C3F30C03052B01D1FFF76B
:103314005DFF638901339BB2638110BD501C0020A3
:1033240002F048BD02F012BE02F04EBE02F094BE9E
:1033340002F034BF02F06EBF02F0C6BF00F032BE2E
:1033440001F058BC01F048BD08B54FF4614100F0EC
:10335400D7F828B1034B00221A705A809A800120B2
:1033640008BD00BF5C1C002000F0D2B807B5C3B292
:10337400000A8DF80400C0438DF80230DB43FF22BD
:103384008DF800208DF805005522684606218DF839
:1033940003308DF8012000F0BCF8831F58425841D7
:1033A40003B05DF804FB38B5264C2078012847D0DB
:1033B400A388052B0DD8C3F10601A01D184489B2BA
:1033C40000F0B6F84FF6FF7398421EBFA388C018EA
:1033D400A080A288012A2AD91B48002110F8015B89
:1033E4008BB2FF2D05D1551E8D4202DD0578552D7A
:1033F40006D001318DB2013395429BB2EED300E089
:10340400ABB1934206D1E1184979FF2904BF03F116
:10341400FF339BB21946914207D260188579C81AC6
:1034240020440131857189B2F5E7D31AA380A288BB
:10343400044B062A08BF0022207804BF9A719A80A0
:1034440038BD00BF5C1C0020621C0020024B00221F
:103454001A705888704700BF5C1C002001284FF088
:103464000801034801D103F0DCBE03F0D8BE00BF5D
:10347400000C014038B5204C0023A3810225A0890B
:1034840050BBFFF7EBFF022001F09EFB0120014639
:1034940002F064FB0821194803F0C3FE0A2001F07E
:1034A40093FB0120212102F05DFC0120212102F087
:1034B40059FC40F2311001F087FB012002F00DFCB1
:1034C40030B1012002F026FC2128F6D10123A3818A
:1034D400012D01D00125D2E7322001F075FB002037
:1034E400FFF7BCFF022001F06FFB0448082103F042
:1034F40098FEA08938BD00BF5C1C0020000C014070
:1035040008B501204FF4614101F02CF8012008BDF9
:10351400704770B50E464B1E451EC418A54205D013
:10352400012015F8011F02F01DFCF7E7304670BDBD
:1035340070B5054601200E4602F0CFFB78B1013D7F
:103544000024012002F0C9FB60B1012002F0E2FB7B
:103554000134A4B2B44205F8010FF2D302E04FF6ED
:10356400FF7070BD204670BDF8B58178032901D87D
:103574000020F8BD022300244A1E934213DA1F4E92
:10358400C218D578F778BD4209D1F37803700223C5
:10359400437083701379C3709378037105E0033328
:1035A400DBB22C46E8E7002BE2D1FE2CE0D014B3CA
:1035B4000020012102F0D2FA02F0A4FE104B1D46B5
:1035C4001F68002002F089FB48B92B68DB1B192B0C
:1035D400CED8022002F081FB0028F2D0C8E7074EC3
:1035E400002006F5807102F097FB96F80031A342A3
:1035F400E7D102F08FFE0120F8BD00BF6A1C002055
:10360400541C002070B58178032926D9037923B38B
:103614008A1E934221DA0222CC1AA2421DDA104CED
:10362400E5788418E678AE4213D101229A4206D88E
:10363400A118CD7881180132CD70D2B2F6E70133EA
:103644008370437803F07F034370FE2303700120EB
:1036540070BD5C1C2244D2B2DEE7002070BD00BF06
:103664006A1C0020F0B58578012D26D9C2787E2AFF
:1036740025D8AB18023BDBB27E2B20D893421ED355
:1036840010498C5CDCB1CB5C022B18D003300024D5
:103694001319DBB201EB430310F8016F93F87F7049
:1036A400B7420CD893F88030B34208D30134631C7A
:1036B400DBB2AB42ECD30020F0BD4020F0BD0820CB
:1036C400F0BD00BF000000201A2813B54ED015D855
:1036D400182822D03CD8042877D13D4B00201C79EF
:1036E4003C4B0134B3FBF4F4214600F03BFF21468C
:1036F400022002B0BDE8104000F034BF532846D089
:1037040054284DD01C2860D1314B988BC1008208BD
:10371400C309C00B0090062030E02D4B1A7E02F046
:10372400FF0072B1187EC0B2012806D101F09DFAE3
:1037340002B0BDE8104002F0F5BD1B7E022B44D15F
:10374400012001F092FA02B0BDE8104002F0F2BD8F
:103754001F4C0121607E00F017FD607E0021C043F4
:10376400C0B202B0BDE8104000F00EBD184B588B3B
:10377400C1008208C309C00B0090052001F0F801C4
:1037840002F0F80203F0F80300F0F2FD1DE0104B24
:1037940093F85330CBB902B0BDE8104002F0B8BE84
:1037A4000B4C94F8530002F09BFE02F08DFE18B10E
:1037B40094F85330FE2B08D194F8540002F09CFE88
:1037C40002B0BDE8104002F0E3BD02B010BD00BF7E
:1037D4006A1C002080841E0070B50446C57800224F
:1037E400D3B25919A0780133DBB29842C9B202F1BD
:1037F400010204D92344D878094B5854F0E7E678F9
:103804000025EBB29819A2780133DBB29A42C0B218
:1038140005F1010502D9FFF757FFF2E770BD00BFBC
:103824006A1C002010B50446084A437892F8F31144
:103834000B434370D37821460370002002F093FABF
:103844002146BDE81040022002F08DBA6A1C002017
:1038540010B50446044B5879400001F07BF920462A
:10386400BDE81040FFF7DEBF6A1C00200146054A90
:103874004B7892F8F30103434B70D37802200B701A
:1038840002F071BA6A1C002010B50446044B587942
:10389400400001F05FF92046BDE81040FFF7E6BFA5
:1038A4006A1C0020084991F8F331CA7818430023B0
:1038B40081F8010181F8002181F80231022001F52B
:1038C400807102F050BA00BF6A1C002010B5044693
:1038D400044B5879400001F03DF92046BDE8104002
:1038E400FFF7E0BF6A1C0020F0B58378012B204B62
:1038F40024D9DA78047983F80021C678002283F881
:10390400012183F80241D5B2A819A542C0B20AD256
:10391400202802BF174D01272F701D5C1648104444
:10392400C5700132EFE70129134803D1BDE8F04027
:10393400FFF78EBFBDE8F040FFF7A6BF01290BD10A
:10394400DA7803F5807083F80021402283F801219E
:10395400002283F80221E9E71B7C012B07D90378B5
:10396400FE2B04D0BDE8F0404020FFF7AFBFF0BD10
:103974006A1C00204E1C00206A1D002030B5C1B016
:103984000021F322664C03A805F0D2F96FF01F035F
:10399400002523771920032363776576A576E576DA
:1039A400FFF792FE1A20FFF78FFE1C20FFF78CFE14
:1039B4000220012102F0D2F82846012102F0CEF8BB
:1039C400002100910620FF220B4600F0D1FC0220CA
:1039D40002F083F90028FAD0022003A902F09CF92E
:1039E4000022FF2100920B46062000F0C1FC02F0E9
:1039F4006DF99DF80C30E278934201D0FE2BDFD1B3
:103A04009DF80D300F2B0ED194F8F531922BD7D1B0
:103A14000020444902F0A7F9424903A8F32205F023
:103A2400BDF8012100E000219DF80D30922B0CD14E
:103A3400012904D03B4803A9F32205F0AFF803A8F9
:103A4400FFF792FD01280146BAD19DF80D30832B72
:103A540005D103A8FFF7D6FD01280146B0D19DF892
:103A64000D30013B0C2B4DD801A252F823F000BFBE
:103A7400EB3A0008D13A0008A93A0008093B0008CB
:103A8400093B0008EF3A0008EF3A0008093B000838
:103A9400093B0008093B0008093B0008093B0008F2
:103AA400C539000803A8FFF7DDFD237C0546012B7B
:103AB40005D99DF80C30FE2B01D0FFF707FF002D30
:103AC4007FF47EAF03A8FFF787FE79E7237C002B02
:103AD4003FF476AF9DF80C30FE2B3FF471AF03A892
:103AE400FFF702FF6CE7002016E0237C012B06D9C8
:103AF4009DF80C30FE2B02D00020FFF7E7FE03F008
:103B0400D7FC5DE7237C012B7FF65AAF9DF80C3080
:103B1400FE2B3FF455AF4020FFF7D8FE50E700BF1F
:103B24006A1C00205E1E00202DE9F84F334C00264D
:103B340004F5807703254FF0FE084FF0020A0523B1
:103B44003046394684F8033184F8008184F8015101
:103B540084F802A184F8046102F005F9042384F8CE
:103B6400023101234FF0100984F804313046242334
:103B7400394684F8053184F806314FF0FF0B84F898
:103B8400008184F8015184F8039102F0ECF80E23CB
:103B94003046394684F8033184F8008184F80151B1
:103BA40084F8025184F804B184F8055102F0DBF87A
:103BB40022233046394684F8033184F8008184F89E
:103BC400015184F8025184F804B184F8055102F0DB
:103BD400CAF81C233046394684F8008184F8015120
:103BE40084F802A184F8033184F8049102F0BBF84C
:103BF4003046BDE8F84F02F0C3B800BF6A1C00208D
:103C040038B50E4CFE23002584F80031032384F8D4
:103C1400013102211823284684F8021184F8033163
:103C240084F8045101F09AFF284604F5807102F0EB
:103C34009AF82846BDE8384002F0A2B86A1C002071
:103C440000230B4A995C0B4AD1540133182BF8D149
:103C5400094911F8130001EB4301497881423ABF45
:103C64000021D154D05401337F2BF1D1704700BFD0
:103C74007D0100206A1C00207F00002010B504464E
:103C84000421064814B103F0CAFA01E003F0C9FAAA
:103C94000034034B18BF01241C7010BD00100140F8
:103CA4009501002010B504460821064814B103F01C
:103CB400B6FA01E003F0B5FA0034034B18BF01244F
:103CC4005C7010BD001001409501002073B5114CCB
:103CD40004230DEB0301142603252046ADF804301C
:103CE4008DF807608DF8065003F037FA082301A910
:103CF4002046ADF804308DF807608DF8065003F0C7
:103D04002CFA0120FFF7BAFF0120FFF7CBFF02B026
:103D140070BD00BF00100140D8E770B5904808217D
:103D240003F06BFA8F4D421E50426B78504198421B
:103D340040F014818C4C2378023B142B00F29080C9
:103D4400DFE803F00B0F14192227353A3F8E8E4C0F
:103D5400505570757A8E7F848900FFF7B7FF03236F
:103D64007DE00020FFF78AFF042378E00020FFF7BE
:103D740099FF012373E06378AA78012090401840EA
:103D8400FFF77CFF06236AE00120FFF78BFF072380
:103D940065E00020FFF786FFAB78724A0BB9082371
:103DA4005DE09378013BDBB29370052357E001207B
:103DB400FFF764FF092352E00120FFF773FF0A2392
:103DC4004DE00421664803F018FA01280CBF0C23C7
:103DD4000B2300202370FFF765FF41E00120FFF76C
:103DE4004DFF1DE00120FFF75DFF0F2337E00421A5
:103DF4005B4803F002FA012801BFAA78A378904037
:103E0400184304BFC0B2A0700020FFF74BFFAB788B
:103E1400544A0BB9102322E09378013BDBB2937030
:103E24000E231CE00020FFF729FF112317E00120D7
:103E3400FFF738FF122312E00020FFF733FF1323AC
:103E44000DE00020FFF71AFF152308E00120FFF71B
:103E540029FF162303E00120FFF710FF002323703E
:103E6400E378D9B2414B13F81120052A76D8DFE85C
:103E740002F0030C1E36604023783B4A0BB9022340
:103E840013E01378012B69D15FE02078364AC0B281
:103E94000B2821D00C281FD001285FD103EB41034C
:103EA4005B7853700723AB700523137070BD2078C3
:103EB4002D4AC0B2012802D0132806D070BD0023B9
:103EC40093700723AB700D23EFE703EB41035B789B
:103ED40091781344C9B219710123137035E0237822
:103EE400214A012B01D11423DFE71378002B35D1AC
:103EF4002BE025796279207A42EA0525627AB5F5C4
:103F0400704F42EA0020A279D6B2E279D2B20BD045
:103F1400B0F5704F08D042EA0622B2F5704F1FBFC9
:103F2400134EB585F085328603EB41035B78E3706D
:103F340070BDA07A0C4A18B903EB41035B780CE01E
:103F4400937A012B06D100239372D3780133DBB229
:103F5400D37070BD937A013BDBB2937270BD00BF26
:103F64000010014095010020511F0020D08D000851
:103F74006A1C002010B54FF40041094803F03DF9D4
:103F84004FF480410128064814BF0224002403F0A2
:103F940034F901281CBF44F00104E4B2204610BDEA
:103FA4000008014038B5604C2378013303F01F0347
:103FB400237063889BB20BB9D02363806388013B71
:103FC4009BB26380A3889BB213B9574BD0229A80CB
:103FD400A3885648013B9BB24FF40051A38003F0E1
:103FE4000CF90128504D29D0AB79BBB12B89013B89
:103FF4009BB22B812B899BB283B9AB79013BDBB29A
:10400400AB7140F20D432B81AB7AB3FA83F35B09B6
:10401400AB72AB7903F0FF0203B9AA72A37A4348E7
:104024004FF480713BB103F0FAF840484FF400615B
:1040340003F0F7F839E003F0F4F831E00823AB714A
:1040440040F20D432B81AB889BB2672B01D8EB7AEE
:104054000BBB2278237B35489A424FF4807102D3FC
:1040640003F0DDF801E003F0DCF82278637B2F48ED
:104074009A424FF4006102D303F0D1F801E003F057
:10408400D0F82278A37B29489A424FF480510FD26A
:1040940003F0C7F80EE025484FF4807103F0BFF831
:1040A40022484FF4006103F0BAF820484FF48051DD
:1040B40003F0B5F863889BB2672B02D81A4BDB7BFD
:1040C40013BB2278237C1A489A424FF0800102D312
:1040D40003F0A5F801E003F0A4F82278637C144807
:1040E4009A424FF4807102D303F099F801E003F08F
:1040F40098F82278A37C0E489A424FF400710FD2AC
:10410400BDE8384003F08DB80948802103F087F8F2
:1041140007484FF4807103F082F805484FF40071AA
:10412400BDE8384003F07BB85C1F00200008014064
:1041340000100140042808B502D11148402116E0BE
:10414400022803D10F484FF4805110E0012803D115
:104154000B484FF400410AE0102803D108484FF4FB
:10416400005104E0082809D105484FF4804103F0C8
:104174004DF810F1FF3018BF012008BD002008BD24
:1041840000100140000C014001292DE9F8430446C8
:1041940000F0040300F0020900F0010800F0100729
:1041A40000F00806284D25D11BB12848402103F012
:1041B40038F8B9F1000F04D025484FF4805103F0CA
:1041C40030F8B8F1000F04D020484FF4004103F058
:1041D40028F827B11D484FF4005103F022F826B106
:1041E4001A484FF4804103F01CF86B7E1C4304F022
:1041F400470425E01BB11548402103F010F8B9F13C
:10420400000F04D012484FF4805103F008F8B8F1BD
:10421400000F04D00D484FF4004103F000F827B11B
:104224000A484FF4005102F0FAFF26B107484FF450
:10423400804102F0F4FF6B7E03F05F0323EA040481
:104244006C76BDE8F88300BF6A1C002000100140B2
:10425400000C014010B580210D4802F0D7FF431E29
:104264005C424FF480710A485C4102F0CFFF0128A0
:1042740008BF44F002044FF40071054808BFE4B2DB
:1042840002F0C4FF012808BF44F00404204610BD16
:104294000010014010B50446E30710484FF08001B8
:1042A40002D502F0BEFF01E002F0B9FFA2070B48FD
:1042B4004FF4807102D502F0B4FF01E002F0AFFFC9
:1042C400630706484FF4007103D5BDE8104002F0BF
:1042D400A8BFBDE8104002F0A2BF00BF001001401B
:1042E40010B54FF480710E4802F090FF431E5C42FB
:1042F4004FF400610A485C4102F088FF012808BFBE
:1043040044F002044FF48051054808BFE4B202F0BF
:104314007DFF012808BF44F00404204610BD00BFFF
:104324000008014010B50446E30710484FF48071BB
:1043340002D502F076FF01E002F071FFA2070B48FC
:104344004FF4006102D502F06CFF01E002F067FF58
:10435400630706484FF4805103D5BDE8104002F0CE
:1043640060BFBDE8104002F05ABF00BF0008014022
:1043740010B505289DF808400ED1104800344FEAC6
:10438400D1014FEAD2024FEAD30318BF01240174CA
:1043940042748374C47310BD06280DD107480034D9
:1043A4004FEAD1014FEAD2024FEAD30318BF0124E6
:1043B400017342738373C47210BD00BF5C1F00207D
:1043C40070B588B01E4C01A803F07DFE04A803F06C
:1043D40083FE204603F0F0FC47230025ADF80430AB
:1043E40020464FF4FA6301A9ADF80830ADF8065041
:1043F400ADF80A508DF80C5003F042FD6023ADF87F
:104404001030BDF808300126F340ADF816302046D0
:10441400022304A9ADF81830ADF81260ADF81450B9
:1044240003F00CFE2046294603F091FF2046314656
:1044340003F06DFE2046314603F075FE08B070BDF2
:104444000008004010B588B001A803F03CFE04A8A1
:1044540003F042FE4FF0804003F0AEFC4FF6FF73D2
:10446400002401A94FF08040ADF80830ADF80440B5
:10447400ADF80A40ADF8064003F002FD01224FF00A
:10448400804040F2D22103F0C3FE042304A94FF07C
:104494008040ADF81630ADF81040ADF81240ADF8DC
:1044A400184003F0CBFD21464FF0804003F04FFF4E
:1044B40001224FF08040102103F043FE4FF0804072
:1044C400012103F024FE08B010BD08B542F22830E3
:1044D40003F002FCBDE80840012003F017BC10B54E
:1044E40003F0F2F84FF4803003F00CF903F05AFAB9
:1044F400012804460DD046F63D60012103F0FCF985
:104504001748012103F004FABDE81040012003F02C
:1045140084B8102002F09CFB022002F081FB0020F2
:1045240003F03EF9002003F04FF94FF4806003F0EC
:1045340041F94FF480304FF4E01103F00FF92046B5
:1045440003F016F9392003F019FA0028FAD00220F2
:1045540003F014F903F01CF90828FBD1CBE700BFE2
:104564000F4014187FB50E460546684604F0A2F9BC
:1045740000240C230096ADF80440ADF80640ADF8D5
:104584000840ADF80C40ADF80A30002D3BD15A4B31
:104594005A481E6004F000F95848694604F046F988
:1045A400564840F22551012204F0B1F9534840F233
:1045B40026612A4604F0ABF9504840F227712A4696
:1045C40004F0A5F94D4840F66A112A4604F09FF913
:1045D4004A4840F224412A4604F099F947482821E0
:1045E4002A4604F094F9454840F646012A4604F068
:1045F4008EF9424860212A4604F089F9284601F0E0
:104604003FFB3E4873E0012D34D13B4B3C485E6098
:1046140004F0C2F869463A4804F008F922463848DA
:1046240040F2255104F073F92246354840F22771CF
:1046340004F06DF92246324840F2266104F067F92D
:1046440022462F4840F2244104F061F922462C48C6
:10465400282104F05CF92246294840F6460104F07A
:1046640056F927486021224604F051F9284601F002
:1046740007FB3FE0022D3DD11F4B22489E6004F012
:104684008BF82048694604F0D1F81E4840F22551C1
:10469400012204F03CF91B4840F22661224604F052
:1046A40036F9184840F22771224604F030F91548CB
:1046B40040F66A11224604F02AF9124840F22441D5
:1046C400224604F024F90F482821224604F01FF959
:1046D4000C4840F64601224604F019F909486021C5
:1046E400224604F014F9284601F0CAFA05480121CB
:1046F40004F001F904B070BD9801002000380140B5
:10470400005000400048004010B9074B186870473B
:10471400012802D1044B58687047022806BF024B97
:1047240098680020704700BF9801002030B587B01A
:1047340001A802F031F900244FF460230125284830
:1047440001A9039301948DF808408DF8095004944D
:104754008DF8145002F0FCF8224801A902F0F8F890
:1047640000F0FEFA1E484FF40871224602F02FF9B9
:1047740022461C484FF4087102F029F918482946CA
:1047840002F013F91748294602F00FF9144802F011
:1047940027F9134802F029F90028FAD1114802F048
:1047A4001FF9104802F021F90028FAD10C4802F050
:1047B40020F90B4802F022F90028FAD1094802F046
:1047C40018F9084802F01AF90028FAD1044801211E
:1047D40002F018F90348012102F014F907B030BDC2
:1047E400002401400028014030B587B001A803F03F
:1047F400A8F94FF48272ADF80620114D022200236D
:10480400ADF80A204FF40072ADF80430ADF808306A
:104814000124ADF80E20ADF81230082207232846F3
:1048240001A9ADF81020ADF81430ADF80C4003F038
:1048340019F92846214603F099F907B030BD00BFA5
:10484400003800402DE9F743624D01A8032402F02B
:10485400CCFC10274FF4C853284601A9ADF8043006
:104864008DF806408DF8077002F077FC4FF4005382
:104874000426ADF804302846282301A98DF8073012
:1048840002F06BFC4FF4806328460DEB06014FF0F9
:104894001809ADF804308DF8076002F05EFC4FF49F
:1048A400007328460DEB06014FF00008ADF8043004
:1048B4008DF806408DF8079002F04FFCFF23284640
:1048C4000DEB0601ADF804308DF8078002F045FCCD
:1048D4004FF44043ADF80430284648230DEB06015D
:1048E4008DF8073002F039FC41F2341305F5806588
:1048F40028460DEB0601ADF804308DF806408DF81E
:10490400077002F02AFC082328460DEB0601ADF8D7
:1049140004308DF806408DF8077002F01EFC4FF449
:10492400086328460DEB0601ADF804308DF80760E6
:1049340002F013FC4EF2406328460DEB0601ADF87D
:1049440004308DF806408DF8079002F006FC2846E6
:104954000DEB0601ADF804408DF8078002F0FDFB75
:104964004EF6C07305F5806528460DEB0601ADF8DB
:1049740004308DF806408DF8077002F0EEFB4FF41A
:10498400805328460DEB0601ADF804308DF806403F
:104994008DF8079002F0E1FB3F2328460DEB06015A
:1049A400ADF804308DF8078002F0D7FB0DEB06015B
:1049B4000948ADF804608DF8076002F0CEFB30467C
:1049C400012102F053FC0548012102F04FFC03B021
:1049D400BDE8F083000801400014014000043000E9
:1049E40073B54FF440514FF0006002F057FD4FF49F
:1049F400A060012402F0ACFC0025272301A88DF857
:104A040004308DF805508DF806508DF8074002F0FB
:104A1400A9FC252301A88DF804308DF805508DF8E4
:104A240006408DF8074002F09DFC072301A88DF88D
:104A340004308DF805408DF806508DF8074002F0DB
:104A440091FC082301A88DF8043002268DF8054056
:104A54008DF806408DF8074002F084FC092301A874
:104A64008DF804308DF805408DF806608DF8074008
:104A740002F078FC0A238DF8043001A803238DF892
:104A840006308DF805408DF8074002F06BFC1C23BE
:104A940001A88DF804308DF805608DF806508DF866
:104AA400074002F05FFC02B070BD10B5264C04F064
:104AB4003AF8FFF714FDFFF793FFFFF7C3FE02F088
:104AC400D3F8A1680220FFF74DFD216800201F4C98
:104AD400FFF748FD0020FEF737FC01F02BFC01F046
:104AE40019FCFFF723FEFFF7F0FCFFF7ABFC2046B1
:104AF4004FF4006102F093FB20464FF48061A4F56B
:104B0400806402F08CFBFFF76FFEFFF759FC01F0A5
:104B1400FFFC2046102102F084FB2046202102F0F5
:104B24007EFB01F0E3FD01F02FFEFFF7F5F8002016
:104B3400FEF794FCFFF784F8054B002283F87C20F1
:104B4400BDE8104003F0F1BF9801002000100140BF
:104B54006A1C002001231A46824202D853430132C0
:104B6400FAE70122824202D853430132FAE70122D2
:104B7400824202D853430132FAE70122824202D828
:104B840053430132FAE70122824202D853430132ED
:104B9400FAE70122824202D853430132FAE70122A2
:104BA400824204D840F2D92101324B43F8E7012272
:104BB400824204D840F29B1101324B43F8E7014A88
:104BC40013607047701F002010B50446012003F0E5
:104BD40089F8074B9C809C88A4B2002CFBD16FF011
:104BE400010003F07FF82046BDE8104003F07AB8D6
:104BF400701F0020044A93889BB21BB19388013B29
:104C04009BB29380704700BF701F002010B57B20BB
:104C140002F0B4FE01281BD07A2002F0AFFE012876
:104C240018D07C2002F0AAFE012815D07D2002F0C5
:104C3400A5FE012812D07E2002F0A0FE01280FD08C
:104C44007F2002F09BFE012814BF0024062408E004
:104C5400022406E0044604E0032402E0042400E005
:104C6400052402F0B6FE204610BD10B50446012C02
:104C740005484FF4807102D102F0D1FA01E002F04C
:104C8400D0FA024B9C7110BD000C0140701F002033
:104C9400400000F1006000F5FE200088704730B548
:104CA400440004F1006404F5FE242388ADF2044DAD
:104CB4008B420D463CD0B0F5007F39D200235A0018
:104CC40002F1006202F5FE2212882DF8132001334E
:104CD400B3F5007FF3D12DF8105001F0C5FF352056
:104CE40002F00EF825B14FF6FF7322889A4204D1E0
:104CF4002046294602F0D4F814E00F4802F035F8B3
:104D04000D4C04F17843A3F5FE233DF803104FF650
:104D1400FF73994202D0204602F0C2F8074B0234D6
:104D24009C42EED10DF2044DBDE8304001F0A8BF25
:104D34000DF2044D30BD00BF00F0070800F4070871
:104D440008B501F091FF352001F0DAFF034802F0C5
:104D54000CF8BDE8084001F093BF00BF00F007085D
:104D640070B500230E4C002224F813200133102BBD
:104D7400F8D184F8202094F820300A4D0A48E95CE0
:104D84000122072301F05CFE94F8203007482B44ED
:104D9400197A01220723BDE8704001F051BE00BF1B
:104DA400781F00200C8E00080024014000280140D8
:104DB400024B33F8100080B2704700BF781F002008
:104DC400034B044A1B88C3F307131344187C70472E
:104DD400781F00200C8E000870B51E4C1E4894F8F5
:104DE400205001F078FEEDB224F815001B4894F829
:104DF400205001F070FE083524F8150094F8203096
:104E04000133DBB284F8203094F82030082B13D01F
:104E140094F82030124D1048E95C0122072301F078
:104E24000FFE94F820300D482B44197A01220723F1
:104E3400BDE8704001F004BE002384F8203034F84B
:104E440013005A00074901333332102B8852F6D12C
:104E5400DEE700BF781F0020002401400028014045
:104E64000C8E00086A1C002008B502F0E7FABFF3B4
:104E74004F8FBFF36F8F08BD38B50446002505700A
:104E840029464570F0228570C5700571457106305C
:104E940003F04EFF84F8F65038BDF8B504460F46CB
:104EA4004FF4806600250021324603F041FFA4F848
:104EB400005429463246A4F8025404F2044003F094
:104EC40037FFA4F8045804F61200A4F80658A4F80E
:104ED4000858A4F80A58A4F80C58A4F80E58A4F8D2
:104EE4001058FFF7C9FF6FF01903C4F80C3984F8A0
:104EF400105984F81179F8BDF8B504460F464FF4FB
:104F0400806600250021324603F012FFA4F8005405
:104F140004F20440A4F802542946324603F008FF80
:104F2400A4F80458A4F80658A4F8085884F80A58B1
:104F3400A4F80C58A4F80E58A4F8105884F8125881
:104F440084F8135884F81478F8BD184A184BB2F84A
:104F54000818A3F85B10B2F80A18A3F85D10B2F8A9
:104F64000C18A3F85F10B2F80E18A3F86110B2F889
:104F74001018A3F8631041F21C11515AA3F86B10D6
:104F840041F21E11515AA3F86D1002F58951098896
:104F9400A3F86F1041F22211515AA3F8711041F293
:104FA4002411525AA3F87320704700BFA4010020B3
:104FB4006A1C00200D4A0E4BB2F80C18A3F86510B9
:104FC400B2F80E18A3F86710B2F81028A3F86920F5
:104FD400084AB2F83C19A3F87510B2F83E19A3F8C0
:104FE4007710B2F84029A3F8792070479A1F00205F
:104FF4006A1C00209C1200200020704710B5044653
:10500400402003F098FD94F81039002043F0010388
:1050140084F81039BDE8104003F08DBD38B504465E
:10502400402003F088FD94F810590020EDB284F874
:10503400100903F080FDAA070FD594F811390BB9B4
:10504400072004E094F81139022B02D10820FFF75D
:105054000BFF94F810395B07FBD538BD38B504460F
:10506400402003F068FDB4F80658B4F80448ADB223
:10507400A4B2002003F05FFD281B18BF012038BD37
:105084002DE9F04104460E46FFF7E8FF98B32046A9
:10509400FFF7B4FFB4F80458B4F80638ADB2621997
:1050A40092F804249BB2FF2A70D16A1CC2F309024D
:1050B400224492F80424FF2A68D1AA1CC2F30902EC
:1050C400224492F80424291D3270EA1CC2F3090216
:1050D400224492F80424C1F30901023AD2B2B27014
:1050E400214491F804145B1B7170C3F30903511D2F
:1050F40099424BDA04E030707070B070BDE8F08112
:105104000535012AC5F3090504D1631993F804345C
:10511400F3702FE0022A0BD1631993F80434F3706F
:105124006B1CC3F30903234493F80434337121E063
:1051340020D91FFA82F86F1E4744C7F30907AF420C
:1051440006F1030005F5806110D20137C7EB0808AA
:105154001FFA88F821440431424603F01FFD06EB90
:105164000800033004F204413A4601E021440431CA
:1051740003F014FDB3781D440135C5F30905A4F803
:1051840004582046BDE8F041FFF748BF00233370C0
:105194007370B370B4F806389BB2A4F80438B4F84A
:1051A4000C3801339BB2A4F80C38FFF7CEFEE8E7C5
:1051B4002DE9F04190F816380446F02B09D9B0F8DF
:1051C4000A3801339BB2A0F80A38BDE8F041FFF772
:1051D400BCBE90F81618B0F80428B0F8063892B29D
:1051E400013AD31A00221046C3F3090306318B4255
:1051F4003ABFCB1A9BB20023834249D9B4F80A2898
:10520400013292B2A4F80A28B4F8042892B22244D3
:1052140092F80424FF2A0AD1B4F8042892B2013285
:10522400C2F30902224492F80424FF2A0BD0B4F8F2
:1052340006389BB2A4F80438B4F80C3801339BB296
:10524400A4F80C3825E0B4F80428033292B2A4F888
:105254000428B4F80428C2F30902A4F80428B4F812
:10526400042892B2224492F804240132D2B2D11C0E
:105274000844B4F8041880B20A4492B2A4F804288A
:10528400B4F80428C2F30902A4F804280122B3E7FD
:105294000AB1FFF75AFEB4F80638FF219BB2C3F3F4
:1052A4000902224482F804145A1CC2F3090222445B
:1052B40082F8041494F813189A1CC2F30902C9B2B0
:1052C400224482F8041494F81618DA1CC2F3090272
:1052D4000231C9B2224482F8041494F815181A1D34
:1052E400C2F309022244C9B282F8041494F81628BD
:1052F4005D1DADB2012AC5F3090008D194F8182840
:105304000633D2B2204480F804249DB243E094F8DA
:105314001628022A11D194F818282044D2B280F811
:105324000424DD1D9A1D94F81938C2F30902DBB276
:105334002244ADB282F804342DE094F81638022BDE
:1053440029D994F8166880B2013E0644C6F30906CA
:10535400864204F6180100F5806012D294F816789B
:105364000136BF1BBFB220443A4604F6120804308B
:1053740003F014FC08EB070104F204400631324642
:1053840003E0204494F81628043003F007FC94F852
:1053940016381D44ADB294F80829C5F30903013544
:1053A400D2B22344C5F3090583F80424A4F80658AB
:1053B400BDE8F08110B50446402003F0BCFB94F82E
:1053C4001338002043F0010384F81338BDE810407B
:1053D40003F0B1BB38B50446402003F0ACFB94F8AD
:1053E40013580020EDB284F8130803F0A4FBAA07B5
:1053F4000FD594F814380BB9092004E094F8143844
:10540400022B02D10A20FFF72FFD94F813385B0713
:10541400FBD538BD38B50446402003F08CFBB4F806
:105424000658B4F80448ADB2A4B2002003F083FBDC
:10543400281B18BF012038BD2DE9F84F8B7804468E
:10544400F02B0F4609D9B0F80E3801339BB2A0F8FF
:105454000E38BDE8F84FFFF7ADBDFFF7ABFFBB78E3
:10546400402003F1060803F066FBB4F80458B4F8CE
:105474000668ADB2B6B26B1E9B1BC3F3090343456A
:105484003ABFC3EB08031FFA83F94FF00009A4F8ED
:105494000898B4F80628002008EB02039BB2A4F88D
:1054A4000638B4F806384FF00008C3F30903A4F82B
:1054B400063803F040FBC2460AF104034B4524DAE4
:1054C400B4F80E3801339BB2A4F80E38631993F87C
:1054D4000434FF2B1CD16B1CC3F30903234493F83E
:1054E4000434FF2B14D10335C5F30905631993F86C
:1054F40004344FF001080133DBB2DA1C92441D443A
:105504001FFA8AFAC5F30905D6E74FF0000B02E04B
:105514004FF00108C346402003F00DFBBBF1000F20
:1055240008D0A4F80468B4F8103801339BB2A4F886
:10553400103833E0B4F808389BB24B452ED1D1452E
:105544002AD9B4F80E3801339BB2A4F80E38631983
:1055540093F80434FF2B07D16B1CC3F309032344D2
:1055640093F80434FF2B08D0A4F80468B4F8103876
:1055740001339BB2A4F810380BE0EB1CC3F309030E
:10558400E21892F8042413440133C3F30903A4F882
:1055940004384FF0010801E0A4F804580020A4F8EE
:1055A400080803F0C8FAB8F1000F01D0FFF702FDB4
:1055B400C6F30903FF22234483F80424731CC3F3B2
:1055C4000903234483F80424B31C3A78C3F309037E
:1055D400234483F80424BA78F31CC3F30903023286
:1055E400D2B2234483F80424711D04367B78C6F3B5
:1055F4000906264486F804343A78BB7889B2134401
:105604007A7802331344DBB20022BD788818561C22
:10561400D2B29542C0F3090009D93A44D57820445E
:1056240080F80454D2781344DBB23246EDE7DB430E
:105634002044DBB280F80434002384F8133894F84F
:1056440014380BB9092004E094F81438022B04D15F
:105654000A20BDE8F84FFFF707BCBDE8F88F2DE935
:10566400F84391F816380446F02B0D4609D9B0F8E2
:105674000E3801339BB2A0F80E38BDE8F843FFF7AB
:1056840099BC91F81618B0F80428B0F8063892B20C
:10569400013AD31AB0F80828C3F309031A44C2F331
:1056A400090206311AB9B0F808380B4402E08B42FB
:1056B40002D2CB1A9BB200E0002300221146A4F8C8
:1056C40008288B4249D9B4F80E28013292B2A4F8C2
:1056D4000E28B4F8042892B2224492F80424FF2A33
:1056E4000AD1B4F8042892B20132C2F30902224466
:1056F40092F80424FF2A0BD0B4F806389BB2A4F81D
:105704000438B4F8103801339BB2A4F8103825E0FB
:10571400B4F80428033292B2A4F80428B4F8042894
:10572400C2F30902A4F80428B4F8042892B222446B
:1057340092F804240132D2B2D01C0144B4F8040813
:1057440089B2024492B2A4F80428B4F80428C2F33B
:105754000902A4F804280122B3E70AB1FFF72AFCDE
:10576400B4F80638FF219BB2C3F30902224482F83D
:1057740004145A1CC2F30902224482F8041495F852
:1057840013189A1CC2F30902C9B2224482F8041401
:1057940095F81618DA1CC2F309020231C9B2224480
:1057A40082F8041495F815181A1DC2F3090222444C
:1057B400C9B282F8041495F816285E1DB6B2012AFF
:1057C400C6F3090008D195F818280633D2B220444C
:1057D40080F804249EB245E095F81628022A11D1D7
:1057E40095F818282044D2B280F80424DE1D9A1DAE
:1057F40095F81938C2F30902DBB22244B6B282F832
:1058040004342FE095F81638022B2BD995F8167826
:1058140080B2013F0744C7F30907874205F6180120
:1058240000F5806014D295F816880137C7EB080894
:105834001FFA88F82044424605F61209043003F0A2
:10584400ADF909EB080104F2044006313A4603E0DD
:10585400204495F81628043003F0A0F995F816387A
:105864001E44B6B295F80829C6F309030136234449
:10587400D2B2C6F3090683F80424A4F8066894F89F
:1058840014380BB9092004E094F81438022B04D11D
:105894000A20BDE8F843FFF7E7BABDE8F88338B556
:1058A4004F4B0D461A68D0F80C190446521A192A9F
:1058B40084BF002280F812281B68C0F80C3990F8C5
:1058C4001238013B052B00F28380DFE803F0030666
:1058D4000E20314AFF2D7FD103E0FF2D80F81358AD
:1058E40001D1022379E0032377E080F8145890F87B
:1058F4001438023BDBB280F8163890F81438012BC8
:1059040066D990F81638F02B62D8042365E080F845
:10591400155890F8132890F8143890F81518134473
:105924000B44DBB280F80839002380F817380FE005
:1059340090F81738DBB25A1CD2B2034480F8172807
:1059440083F8185890F808190D44EDB280F80859F6
:1059540094F8172894F816389A420CBF06230523A6
:105964003BE090F80839DB43DBB280F8083990F863
:1059740008399D4224D1B0F8083801339BB2A0F80D
:10598400083890F81139022B04D11648FFF710FC9F
:1059940008200FE090F811397BB9134B93F846397E
:1059A400012B02D11148FFF703FC11480F49FFF7FF
:1059B40056FE10200121FEF7E7FBFFF7C6FA0BE0C5
:1059C400B0F80E3801339BB2A0F80E38FFF7BDFAD9
:1059D400FF2D01D1012300E0002384F8123838BDE3
:1059E400541C0020B80A00209C120020A4010020AE
:1059F400CC1300202DE9F0410446002680F80A6803
:105A04002046FFF707FD002876D0B4F804389BB28F
:105A1400234493F80434FF2B1DD1B4F804389BB20B
:105A24000133C3F30903234493F80434FF2B12D145
:105A3400B4F804389BB20333C3F30903234493F843
:105A44000474B4F80638B4F8042804379B1AC3F372
:105A540009039F420BD9B4F806389BB2A4F8043862
:105A6400B4F8103801339BB2A4F8103845E003F0C1
:105A74005AF8B4F80054B4F80284ADB21FFA88F8A6
:105A8400013DC8EB0505C5F3090503F04EF8AF4227
:105A94002FD8002503F047F8B4F80224013592B258
:105AA400531C9BB2A4F80234B4F804389BB2591CBA
:105AB40089B2A4F80418234493F80434DBB2A35441
:105AC400B4F80234C3F30903A4F8023403F02DF844
:105AD400B4F80438C3F30903A4F80438ABB2BB42E6
:105AE400D8D3B4F80C38012601339BB2A4F80C388F
:105AF40086E7012384F80A381EB1BDE8F041FFF7B8
:105B040059BABDE8F08110B5044603F00CF84FF61D
:105B1400BF73064AA4B21380948093899BB243F066
:105B240040039381BDE8104002F0FFBF00480040ED
:105B340010B5044602F0F7FF4FF6BF73064AA4B24D
:105B44001380948093899BB243F040039381BDE812
:105B5400104002F0EABF00BF0038014038B50546E6
:105B640040200C4602F0E7FF012D08D1E4072CD5B4
:105B7400184B0022A3F81628A3F8182825E07DB9AD
:105B8400E00742BF144BA3F80658A3F80458A10732
:105B94001BD5104B0022A3F80628A3F8042814E010
:105BA400022D12D1E20741BF41F21A110A4B002221
:105BB4005A5244BF41F218115A52A30741BF074B2E
:105BC4000022A3F83629A3F834290020BDE8384080
:105BD40002F0B1BF9A1F0020A40100209C120020F3
:105BE400012808B506D1CA073ED5224B0022A3F8E6
:105BF4001A2839E0C0B9CB0741BF1F4BA3F81008DE
:105C0400A3F80E08A3F80C0844BFA3F80A08A3F8E5
:105C14000808890728D5174B0022A3F81028A3F8F1
:105C24000E28A3F80C281FE002281DD1CA0710D59E
:105C340041F22410104B00221A5241F222101A523F
:105C440003F58950028041F21E101A5241F21C10D1
:105C54001A528B0741BF094B0022A3F84029A3F82D
:105C64003E2948BFA3F83C29FFF76FF9BDE8084077
:105C7400FFF7A0B99A1F0020A40100209C12002065
:105C840010B5044628B90D482146FFF706F90C481B
:105C940006E0022807D10B482146FFF7FEF80A4820
:105CA4002146FFF729F920460321FFF757FF204635
:105CB400BDE810400321FFF793BF00BFA4010020FB
:105CC4009A1F0020B80A0020CC13002008B5FFF763
:105CD4003CF9BDE80840FFF76DB901280AD10A4A2A
:105CE400B2F8160883B2B2F8180880B2181A18BFAE
:105CF4000120704708B9054802E0022802D104488F
:105D0400FFF7ACB9002070479A1F0020A4010020BF
:105D1400B80A00200020704708B9064802E00228AB
:105D240002D10548FFF7ACB900220A704A708A70A4
:105D3400704700BFA4010020B80A002001280BD03E
:105D440018B9064B93F8120804E0022804D1044B56
:105D540093F84209C0B27047002070479A1F002090
:105D64009C120020704708B9034802E0022802D1BF
:105D74000248FFF761BB70479A1F0020CC13002034
:105D840010B5044628B9094B93F813385A07FAD5C5
:105D940006E0022804D1064B93F843395B07FAD591
:105DA4002046FFF7CBFF0028FAD110BD9A1F002030
:105DB4009C12002038B5604B1A88194692B212F032
:105DC400200FC2F3C00501D1002D72D05B4C8A882C
:105DD400B4F8163DD2B29BB2591C89B22344A4F83C
:105DE400161D83F81429B4F8163DC3F30903A4F867
:105DF400163DB4F8161DB4F8143D89B29BB299420D
:105E040014D141F21E11B4F8143D01339BB2A4F82D
:105E1400143DB4F8143DC3F30903A4F8143D635AC4
:105E240001339BB263524649A1F86D30454B93F858
:105E34001C18012931D1B3F8021489B2481C80B26C
:105E4400A3F802045A54B3F80224C2F30902A3F8D3
:105E54000224B3F80214B3F8002489B292B2914236
:105E640014D1B3F800243649013292B2A3F80024C5
:105E7400B3F80024C2F30902A3F80024B3F80E28EF
:105E8400013292B2A3F80E28A1F8672093F81238D1
:105E9400012B02D00920FEF7E7FF45B141F224129D
:105EA400A35A01339BB2A352254AA2F873300820A7
:105EB40031E052063BD5244C94F84229012A2DD1D5
:105EC400B4F83015B4F8322589B292B2914212D0A6
:105ED400B4F830359BB25A1C92B22344A4F830254E
:105EE40093F83001FFF70FFEB4F83035C3F309031C
:105EF400A4F830351BE084F842599A8922F0400214
:105F04001204120C9A814FF6BF721A8094F83A392F
:105F1400012B0CD10A20FEF7A7FF08E09A8922F092
:105F240040021204120C9A814FF6BF721A80BFF31A
:105F34004F8FBFF36F8F38BD00480040A40100208D
:105F44006A1C00209A1F00209C12002041F2242386
:105F540070B51B4AD45C164614F0010404D0D15C1D
:105F640041F00201D15470BDD25C42F00402F254FB
:105F740002F0D9FDB6F8145D114AABB2B6F8165D5D
:105F8400ADB25D1B18BF012585B1B2F8143D9BB2BB
:105F9400591C89B2A2F8141D134493F81449B2F899
:105FA400143DE4B2C3F30903A2F8143D02F0BDFDAD
:105FB40025B104482146FFF772FCD9E770BD00BF44
:105FC400A4010020B80A0020F8B5224C94F8433903
:105FD40013F0010F94F8433904D043F0020384F81A
:105FE400433907E043F0040304F5987084F8433917
:105FF400FFF700FD94F84239164E012B29D002F028
:1060040092FDB6F83055ABB2B6F83255ADB25D1B61
:1060140018BF01258DB1B6F830359BB25A1C92B227
:10602400A6F83025334493F83071B6F83035FFB212
:10603400C3F30903A6F8303500E02F4602F075FDDE
:106044003DB1012384F842393846BDE8F840FFF7F2
:106054005ABDF8BD9C12002010B54B4B1A88184647
:1060640092B212F0200FC2F3C00101D1002939D03D
:10607400464B8088B3F80224C0B292B2541CA4B236
:10608400A3F802449854B3F80224C2F30902A3F813
:106094000224B3F80204B3F8002480B292B290420E
:1060A40014D1B3F800243A48013292B2A3F8002480
:1060B400B3F80024C2F30902A3F80024B3F80A28B1
:1060C400013292B2A3F80A28A0F85D2041B1B3F8D6
:1060D4001028013292B2A3F810282D4BA3F86320A4
:1060E400072037E0520649D52A4C94F81228012A91
:1060F40033D1B4F80004B4F8022480B292B29042CE
:1061040010D0B4F800349BB25A1C92B2A4F8002404
:10611400E05CFFF70DFDB4F80034C3F30903A4F801
:1061240000342BE084F812189A891B4822F04002AC
:106134001204120C9A814FF6BF7210211A8001F0DA
:1061440070F81548202101F06AF894F80A38012BF8
:1061540014D10920FEF788FE10E09A890E4822F037
:1061640040021204120C9A814FF6BF7210211A8059
:1061740001F057F80848202101F051F8BFF34F8F80
:10618400BFF36F8F10BD00BF00380140A401002091
:106194006A1C00209A1F0020000C014070B51C4BA3
:1061A40093F810491E4614F0010406D093F8102900
:1061B40042F0020283F8102970BD93F8103943F0BD
:1061C400040386F8103902F0AEFCB6F80054104A05
:1061D400ABB2B6F80254ADB25D1B18BF012575B160
:1061E400B2F800349BB2591C89B2A2F80014D45CF2
:1061F400B2F80034E4B2C3F30903A2F8003402F0A5
:1062040094FC25B102482146FFF749FBDBE770BD4A
:10621400A4010020F8B52A4C94F8133813F0010FA8
:1062240094F8133804D043F0020384F8133806E0DA
:1062340043F00403204684F81338FFF7DBFB94F89B
:1062440012381F4E012B39D002F06DFCB6F8005401
:10625400ABB2B6F80254ADB25D1B18BF01257DB1D7
:10626400B6F800349BB25A1C92B2A6F80024F75C2C
:10627400B6F80034FFB2C3F30903A6F8003400E013
:106284002F4602F052FCCDB10E48202100F0C9FF88
:106294000C48102100F0C3FF012384F812380022B7
:1062A40094F81D3813440132DBB2642A84F81D3893
:1062B400F6D13846BDE8F840FFF73ABCF8BD00BF58
:1062C4009A1F0020000C01400C4A0D490B8892F8DB
:1062D4001D08034403F0FF0382F81D384FF69F6343
:1062E4000B808B8892F81D180B4403F0FF0382F88F
:1062F4001D38BFF34F8FBFF36F8F70479A1F002075
:1063040000500040024B012283F84629704700BF29
:106314009C120020024B002283F84629704700BFDC
:106324009C120020024B012283F81C28704700BFF6
:106334009A1F0020024B002283F81C28704700BFDC
:106344009A1F0020054B1A883AB95A882AB9192885
:106354009FBFDA80012298801A807047B82B0020F2
:106364000A4B1A888AB9332828BF3320322903D824
:10637400002908BF032100E0322101EB810101EB78
:1063840081010122188159815A807047B82B00205D
:10639400044B197B587BFF2901D1FFF7D3BFFFF7CB
:1063A400DFBF00BFB82B002038B50446054D214699
:1063B400284602F0ECF828466108BDE8384002F0AF
:1063C400EEB800BF00080040F8B53C4B59881A46A7
:1063D40051B1588930B1013858811A89384B33F892
:1063E40012002FE058802DE01988002964D0D98943
:1063F40051B11A8A0139012AD9815DD19A8A588A00
:10640400104480B298821DE0DB882E4F3BB99388FC
:10641400012157F82330D1801B88A7F8683093886E
:10642400D18857F82330254C33F81100DFF894E075
:10643400C0F3C31600F01F03D0821683538328B918
:10644400E0802080BDE8F840FFF7AEBF00F02005F3
:10645400ADB265B1400648BF5B426382B7F86830AD
:1064640001255E4301312582D681D180F8BD1E2BE2
:10647400258206D1BEF8683001315E43E180E681B1
:10648400F8BDA28B012A15D1BEF86820A583564316
:106494000B4DE68105EB4303B3F86800FFF784FF77
:1064A400638B05EB4305B5F86830A382E3880133B9
:1064B400E380F8BD0123A383F8BD00BFB82B0020FF
:1064C4001C8F0008E41B0020044B1A8822B958884A
:1064D400003018BF0120704701207047B82B0020FE
:1064E400014B1873704700BFB82B0020014B187B79
:1064F400704700BFB82B0020014B5873704700BF92
:10650400B82B0020014B587B704700BFB82B0020EC
:10651400024B002058801880FFF746BFB82B00209C
:106524002DE9F0434E4B4F4F1879DA78997942EAC6
:1065340000205A7993F808C042EA0121DA795C789C
:1065440042EA0C2C5D7B1A7B93F80BE042EA0522AD
:106554009D7ADE7B45EA0E2E9D7B404245EA062667
:106564003D784942C4F13204524280B289B2E4B265
:1065740092B21DB100251D745D743D7093F81180B5
:106584000C2505FB0838A8F81200587C344F05FB8D
:1065940000308182597C05FB0131A1F816C0597C79
:1065A40005FB01310A835A7C002105FB0232A2F863
:1065B4001AE05A7C8E4605FB0235AE835A7C8C4623
:1065C4000132D2B25A745A7C8846052A01BF01228C
:1065D4003A7400227A740D460E460F461A7C012A3C
:1065E40017BF1F4A0522527CD2B2C8B2904220D2B1
:1065F4000C2000FB0130B0F8129001310FFA89F938
:106604004F44B0F814900FFA89F94E44B0F816903C
:106614000FFA89F94D44B0F818900FFA89F9C84473
:10662400B0F81A90808B0FFA89F900B2CC448644F2
:10663400DBE797FBF2F796FBF2F695FBF2F598FB96
:10664400F2F09CFBF2F19EFBF2F2074B1F845E8496
:106654009D84D88419855A8583F83240BDE8F08337
:10666400D62B00204E1C00206A1C002038B505469D
:106674000C461C48022101F0FDFA0028F9D01A4802
:106684004FF4006100F0CDFD1648294601F09EFA52
:106694001448022101F0EEFA0028F9D01148012132
:1066A40001F0E8FA0028F9D00E4801F091FA0D48FB
:1066B400214601F08BFA0B48022101F0DBFA002895
:1066C400F9D00848012101F0D5FA0028F9D005488D
:1066D40001F07EFABDE8384003484FF4006100F051
:1066E4009EBD00BF003800400010014008B52020C6
:1066F400BF21FFF7BBFF23208021FFF7B7FFBDE8D1
:10670400084024200021FFF7B1BF38B505460C46E8
:106714001B48022101F0AEFA0028F9D019484FF4C1
:10672400806100F07EFD1648294601F04FFA1448B6
:10673400022101F09FFA0028F9D01148012101F04B
:1067440099FA0028F9D00E4801F042FA0C48214683
:1067540001F03CFA0A48022101F08CFA0028F9D031
:106764000748012101F086FA0028F9D0044801F015
:106774002FFABDE8384003484FF4806100F04FBD64
:10678400003800400010014008B520202F21FFF7F9
:10679400BCFF21200021FFF7B8FFBDE808402320FB
:1067A4009021FFF7B2BF2DE9F041504C94F84E30E0
:1067B4000133DBB284F84E3094F84E30812B84BF21
:1067C400002384F84E3094F84E30002B15BF062673
:1067D40008262825262514BF4FF003084FF001088A
:1067E4004348022101F046FA0028F9D041484FF409
:1067F400006100F016FD3E4845F0C00101F0E6F9E5
:106804003B48022101F036FA0028F9D0384801212A
:1068140001F030FA0028F9D0354801F0D9F9C0B2B6
:10682400207000253248FF2101F0D0F930480221C0
:1068340001F020FA0028F9D02D48012101F01AFABC
:106844000028F9D02A4801F0C3F905EB08070135FF
:10685400EBB2C0B2B342E055E4D326484FF4006132
:1068640000F0DDFC2248022101F004FA0028F9D0EE
:1068740020484FF4806100F0D4FC1D48E82101F069
:10688400A5F91B48022101F0F5F90028F9D01848B0
:10689400012101F0EFF90028F9D0154801F098F929
:1068A400C0B2607201251248FF2101F08FF910482F
:1068B400022101F0DFF90028F9D00D48012101F08F
:1068C400D9F90028F9D00A4801F082F96319013591
:1068D400C0B2072D5872E6D106484FF4806100F02B
:1068E4009EFCBDE8F041FFF71BBE00BFD62B002085
:1068F400003800400010014008B5144B98420FD0F6
:1069040003F5A053984213D0A3F5C05398421BD16A
:106914004FF40070012101F007F84FF400700EE00D
:106924004FF48060012100F0FFFF4FF4806006E027
:106934004FF40040012100F0F7FF4FF40040002124
:10694400BDE8084000F0F0BF08BD00BF00280140CA
:10695400436810B523F470220B6822F48072134349
:106964000A7943EA02234360CB688A6884681A433D
:10697400084B234013434A7943EA42038360C36AC2
:1069840023F470020B7C013BDBB242EA0353C36283
:1069940010BD00BFFDF7F1FF0023036003714371D5
:1069A4008360C360012303747047836811B143F0AB
:1069B400010301E023F0010383607047836811B190
:1069C40043F4807301E023F4807383607047C9B299
:1069D40043680AB1194301E023EA010141607047A9
:1069E400836843F00803836070478068C0F3C00085
:1069F4007047836843F00403836070478068C0F382
:106A040080007047836811B143F4A00301E023F4CC
:106A1400A003836070478068C0F380507047436868
:106A2400013923F4604343EA4133436070474368C8
:106A340011B143F4006301E023F400634360704741
:106A4400092970B50CD9A1F10A04C66804EB440401
:106A54000725A54026EA0505A3402B43C36009E0AA
:106A6400056901EB41060724B44025EA0404B34058
:106A740023430361062A0BD8013A446B02EB8202DA
:106A84001F23934024EA030391401943416370BDDB
:106A94000C2A0BD8073A046B02EB82021F239340A3
:106AA40024EA030391401943016370BD0D3AC46A9B
:106AB40002EB82021F23934024EA0303914019430B
:106AC400C16270BD836811B143F4801301E023F403
:106AD400801383607047C06C80B27047014B1868A4
:106AE400704700BF4C240140436811B143F48063F4
:106AF40001E023F4806343607047436811B143F4B9
:106B0400805301E023F4805343607047836823F487
:106B1400E043194381607047836811B143F4004333
:106B240001E023F4004383607047836811B143F4A8
:106B3400021301E023F40213836070478068C0F3FA
:106B440040507047092970B50CD9A1F10A04C668F0
:106B540004EB44040725A54026EA0505A3402B437E
:106B6400C36009E0056901EB41060724B44025EA46
:106B74000404B34023430361836B0232C3F301541F
:106B8400121BD2B202EB82021F24944023EA0403B4
:106B940091401943816370BD836B013923F4401321
:106BA40043EA015383637047425070472831405889
:106BB40080B27047436823F4400323F400731943FD
:106BC40041607047416282627047436823F01F034B
:106BD400194341607047054B9A6810B142F40002B2
:106BE40001E022F400029A60704700BF00240140D3
:106BF4000368194214BF012000207047C943016093
:106C040070474368006810EA112004D0C9B21942E1
:106C140014BF0120002070476FEA11210160704702
:106C2400044B1A6802F038021A601A68104318609C
:106C3400704700BF00200240044B1A6822F008028B
:106C44001A601A6810431860704700BF00200240A1
:106C5400044B1A6822F010021A601A681043186074
:106C6400704700BF00200240034B044A5A6002F1FF
:106C740088325A60704700BF0020024023016745F4
:106C8400024A136943F080031361704700200240F5
:106C9400014BD8698008704700200240014B186AF4
:106CA400704700BF00200240024BD869C0F3400087
:106CB400704700BF00200240024B1868C0F3401028
:106CC400704700BF00200240044B1A6909B1104309
:106CD40001E022EA00001861704700BF0020024072
:106CE4000128064B03D1D86900F001007047DB6826
:106CF400184214BF01200020704700BF002002404A
:106D0400014BD860704700BF00200240084BDA688E
:106D1400D10709D4DA68520708D4DB6813F0100FDE
:106D240014BF0320042070470120704702207047DD
:106D34000020024013B50446FFF7E8FF01280FD1F5
:106D440064B100230193FF230193019B13B1019BC1
:106D5400013BF9E7FFF7DAFF013CEFE7052002E02A
:106D6400002C08BF052002B010BD38B5054640F61A
:106D7400FF70FFF7DFFF042814D10B4C40F6FF70BF
:106D8400236943F0020323616561236943F04003EF
:106D94002361FFF7CFFF01281FBF41F6FD7322696E
:106DA4001340236138BD00BF0020024010B540F6F7
:106DB400FF70FFF7BFFF042813D10A4C40F6FF70A1
:106DC400236943F004032361236943F040032361EF
:106DD400FFF7B0FF01281FBF41F6FB732269134080
:106DE400236110BD0020024010B540F6FF70FFF78C
:106DF400A1FF042829D1154C154B40F6FF70A36060
:106E040003F18833A360236943F0200323612369DA
:106E140043F040032361FFF78DFF04280ED141F6B0
:106E2400DF7322690F20134023612369A52243F0F5
:106E340010032361074B1A80FFF77CFF01281FBF53
:106E440041F6EF7322691340236110BD0020024014
:106E54002301674500F8FF1F70B506460F200D4655
:106E6400FFF768FF042817D10C4C0F20236943F067
:106E740001032361ABB23380FFF75CFF042804D124
:106E84002D0C75800F20FFF755FF01281FBF41F619
:106E9400FE7322691340236170BD00BF00200240CD
:106EA40070B505460F200E46FFF744FF04280FD1A6
:106EB400084C0F20236943F0010323612E80FFF760
:106EC40039FF01281FBF41F6FE7322691340236175
:106ED40070BD00BF0020024070B506460F200D466D
:106EE400FFF728FF042815D10B4C0C4BADB2A3605F
:106EF40003F18833A36023690F2043F01003236157
:106F04003580FFF717FF01281FBF41F6EF73226991
:106F14001340236170BD00BF002002402301674578
:106F240010B504460F20FFF705FF042841D1E443C0
:106F3400204B214AE1B29A6002F188329A601A69C0
:106F4400FF2942F010021A6104D1C4F30723FF2B76
:106F540008D10FE0194B0F201981FFF7EBFE04282D
:106F64001FD1F2E7154A9BB253810F20FFF7E2FECF
:106F7400042816D1C4F30743FF2B07D00F4A9BB252
:106F840093810F20FFF7D6FE04280AD1240EFF2C8C
:106F940001D1042007E0094BA4B2DC810F20FFF7E4
:106FA400C9FE012805D041F6EF73024A11690B406E
:106FB400136110BD002002402301674500F8FF1F44
:106FC40038B5054640F6FF70FFF7B4FE042836D105
:106FD4001B4C1C4B40F6FF70A36003F18833A36085
:106FE400236943F020032361236943F040032361B1
:106FF400FFF7A0FE04281BD141F6DF73226913407A
:107004002361236943F0100323610F4B0DB1002268
:1070140000E0A5221A8040F6FF70FFF78BFE0128DE
:107024000DD041F6EF73064A11690B40136138BD68
:1070340001281FBF41F6DF7322691340236138BD65
:10704400002002402301674500F8FF1FF8B5114DE9
:10705400114B0646AB6003F18833AB600F200F463B
:107064001446FFF767FE042813D12B6944F0F80097
:1070740043F010032B613843084B304358800F20F2
:10708400FFF758FE01281FBF41F6EF732A6913402A
:107094002B61F8BD002002402301674500F8FF1F63
:1070A40008B5264B98422FD011D8A3F50063984217
:1070B4001ED003F58063984220D0A3F50063984264
:1070C4003AD10420012100F02FFC04202FE01C4BB6
:1070D40098421FD003F58063984221D0A3F5006342
:1070E400984229D14020012100F01EFC40201EE0DE
:1070F4000820012100F018FC082018E010200121CC
:1071040000F012FC102012E02020012100F00CFC01
:1071140020200CE08020012100F006FC802006E005
:107124004FF48070012100F0FFFB4FF480700021C8
:10713400BDE8084000F0F8BB08BD00BF00140140E2
:10714400001C014008B50120014600F0EDFBBDE83C
:1071540008400120002100F0E7BBCA78F0B502F036
:107164000F03D20644BF8A7813430A78DAB102685F
:10717400002401260D88A6403540B5420FD1A70052
:107184000F26BE4022EA060203FA07F63243CE78FF
:10719400282E01D1456102E0482E08BF0561013463
:1071A400082CE6D102600A88FF2A1DD9426800240F
:1071B40004F108050126AE400D883540B5420FD1D3
:1071C400A7000F26BE4022EA060203FA07F632435E
:1071D400CE78282E08BF4561CE78482E08BF0561B9
:1071E4000134082CE4D14260F0BD4FF6FF730380F4
:1071F400022383700423C37070478368194214BF49
:10720400012000207047806880B27047C36819422B
:1072140014BF012000207047C06880B2704701612C
:107224007047416170470AB101617047416170471D
:10723400C160704741F480338361816183618369F4
:1072440083697047054A136823F07F031B041B0CF2
:10725400194341EA00101060704700BF000001406C
:10726400014B1860704700BF1C00204230B5134C1E
:1072740000F44015B5F5401F636882B206D1656815
:1072840023F0706325F0706565600EE0C40255BF9D
:10729400440D03242401C0F303454CBFAC4002FA5F
:1072A40004F423EA040343F0706319B1400D0001B0
:1072B40082401343014A536030BD00BF00000140C7
:1072C40010B501F0030301F0FC0101F1804101F567
:1072D40080318C689B000F229A4024EA02028A6063
:1072E4008A68984002438A6010BD00BF0B4B6FF060
:1072F40070424FF0FF31C3F88010C3F88420C3F804
:107304008011C3F88421002202F1C001013200205F
:107314000F2A43F82100F7D1704700BF00E100E0D5
:10732400094B4FF0206209495A6000229A60D960E3
:107334001A615A619A61DA611A625A624FF0FF3235
:107344009A62DA621A63704700ED00E00000FA0501
:1073540040F0BF60024B40F40030D860704700BF7B
:1073640000ED00E0C27830B5037872B31C4A03F034
:107374000305D4684278E443C4F30224C4F104014D
:1073840002FA01F10F22E240847803F0FC03224068
:1073940003F1604303F561430A43D3F80043ED006E
:1073A4001201FF21A940AA4024EA01040A40224311
:1073B400C3F8002303780122590903F01F0302FADA
:1073C40003F3084A42F8213030BD5A09012103F081
:1073D4001F03994002F12003024A42F8231030BDF2
:1073E40000ED00E000E100E00023037043708370CF
:1073F400C370704701F097BB01F097BB01F097BBD6
:1074040001F097BB000101F096BB01F097BB024B62
:107414005868C0F30930704700ED00E000F01F0326
:1074240001229A4004494309403351F82300104093
:10743400831A58425841704700E100E0014B18603C
:10744400704700BF00EF00E04309012200F01F0075
:1074540002498240603341F82320704700E100E094
:10746400024B5868C0F30900704700BF00ED00E00C
:1074740000F01F0301229A4004494309803351F864
:1074840023001040831A58425841704700E100E03D
:10749400014B1868704700BF00ED00E021F0604127
:1074A40021F07F01014B08439860704700ED00E034
:1074B400014A024BDA6070470400FA0500ED00E06F
:1074C400014A024BDA6070470100FA0500ED00E062
:1074D400044B1A6909B1104301E022EA0000186163
:1074E400704700BF00ED00E000F01F000122824061
:1074F400044B11B1596A0A4302E0596A21EA0202B3
:107504005A62704700ED00E010B5114BDB68DB43B5
:10751400C3F30223C3F10404A140FF2424FA03F3B8
:107524001A40C0F30123C0F38110800000F16040D1
:1075340000F56D401143DB0082699C4022EA04049B
:1075440084618269090199401143816110BD00BFC2
:1075540000ED00E0054AC0F3832001238340506A14
:107564001840C31A58425841704700BF00ED00E06C
:10757400044900F01F004B680122824013434B6012
:10758400704700BF00ED00E0044900F01F004B68A5
:1075940001380122824013434B60704700ED00E044
:1075A400054AC0F3833001238340506A1840C31A4C
:1075B40058425841704700BF00ED00E0C0F38143DA
:1075C400094A0BB9D06A7047012B0AD1C0F30153A1
:1075D400906ADA00D040022B14BF00F00F00C0B252
:1075E4007047106B704700BF00ED00E0034B10F4D0
:1075F400800F0CBF586B986B704700BF00ED00E024
:1076040008B54FF08050012100F09AF9BDE8084018
:107614004FF08050002100F093B9014B186070477F
:1076240020000E42014B1860704700BF10000E424C
:10763400034A136823F0E00318431060704700BF47
:1076440000700040014B1860704700BFA0000E425C
:10765400084A0129136823F0030340EA0300106079
:10766400054A136843F00403136001D101F036BAEC
:1076740001F036BA0070004010ED00E0074B1A68C4
:1076840042F004021A601A6842F002021A60044AC4
:10769400136843F00403136001F020BA0070004043
:1076A40010ED00E0034B5B68184214BF012000207A
:1076B400704700BF00700040024A136843EA80002C
:1076C40010607047007000400C4B1A6842F00102D1
:1076D4001A6059680A4A0A405A601A6822F0847289
:1076E40022F480321A601A6822F480221A605A68DE
:1076F40022F4FE025A6000229A6070470010024091
:107704000000FFF80C4BB0F5803F1A6822F4803279
:107714001A601A6822F480221A6003D0B0F5802F10
:1077240004D070471A6842F4803202E01A6842F4C6
:10773400A0221A60704700BF00100240034A136879
:1077440023F0F80343EAC0001060704700100240C1
:10775400014B1860704700BF00004242034A53685F
:1077640023F47C131943084350607047001002400F
:10777400014B1860704700BF60004242034A5368DF
:1077840023F0030318435060704700BF0010024009
:10779400024B586800F00C00704700BF0010024014
:1077A400034A536823F0F00318435060704700BF46
:1077B40000100240034A536823F4E0631843506006
:1077C400704700BF00100240034A536823F460531B
:1077D40043EAC0005060704700100240044B1A781E
:1077E40009B1104301E022EA00001870704700BF9D
:1077F40009100240014B1860704700BFD800424294
:10780400034A536823F4404318435060704700BF51
:1078140000100240064B002201281A701A7002D090
:10782400042802D070471870704705221A707047F8
:1078340020100240014B1860704700BF8004424290
:10784400024A136A18431062704700BF00100240D6
:10785400014B1860704700BF3C04424210B51C4AFB
:10786400536803F00C03042B01D0082B01D0194BEF
:107874000EE053685168C3F38343CC0303F102035E
:1078840002D55168890301D5134900E011494B43DE
:10789400036053681149C3F30313CC5C0368E340EA
:1078A40043605468C4F302240C5D23FA04F4846036
:1078B4005468C4F3C2240C5DE340C3605268C2F34D
:1078C40081320A44127CB3FBF2F3036110BD00BFA2
:1078D4000010024000127A0000093D009C9100084B
:1078E400044B5A6909B1104301E022EA00005861CF
:1078F400704700BF00100240044B9A6909B110435D
:1079040001E022EA00009861704700BF00100240C5
:10791400044BDA6909B1104301E022EA0000D8619E
:10792400704700BF00100240044BDA6809B11043ED
:1079340001E022EA0000D860704700BF0010024056
:10794400044B1A6909B1104301E022EA00001861EE
:10795400704700BF00100240014B1860704700BF21
:1079640040044242014B1860704700BF4C00424241
:10797400014B1870704700BF071002404209012AEA
:10798400074B01D11B6803E0022A0CBF1B6A5B6A28
:1079940000F01F0023FA00F000F00100704700BF60
:1079A4000010024007B5002301933120FFF7E6FFE2
:1079B400019B0133019318B9019BB3F5A06FF4D176
:1079C4003120FFF7DBFF003018BF012003B05DF862
:1079D40004FB034A536A43F080735362704700BF49
:1079E40000100240034B9B68184214BF0120002082
:1079F400704700BF00100240014B1870704700BF71
:107A04000A10024008B5164B98421BD003F5744384
:107A140098420BD0A3F5784398421FD14FF480408D
:107A24000121FFF78DFF4FF4804012E04FF48050A6
:107A34000121FFF779FFBDE808404FF48050002191
:107A4400FFF772BF4FF400400121FFF779FF4FF4B5
:107A540000400021BDE80840FFF772BF08BD00BF29
:107A6400003C004003884A8810B503F441540B8855
:107A740013438A881343CA8813430A8913434A89E0
:107A840013438A891343CA89134323439BB2038054
:107A9400838B23F400631B041B0C83830B8A0382F4
:107AA40010BDF0B5838B87B023F47B6323F00F0301
:107AB4001B041B0C8383022303840B89868B022BF8
:107AC40005460C46B6B222D08B8801A8002B14BF01
:107AD40002270127FFF7C2FEE3882189B3F5007F5F
:107AE400019B4FF00A0202FB03F21ABF7B014B43D6
:107AF4000B02B2FBF3F305330A229BB2B3FBF2F39E
:107B040003F001021202C3F34F0392B200E0002219
:107B1400991E89B2FE2924BF002202231343E2885E
:107B240013439BB22B842388A2881E43638846F4A4
:107B3400006633431343628913439BB2AB8307B09C
:107B4400F0BD0023038043808380C380038143818D
:107B54008381C381072303827047002302220380A9
:107B640043808380C380028143817047038819B1B5
:107B74009BB243F0400303E023F040031B041B0CBF
:107B840003807047838B19B19BB243F4806303E095
:107B940023F480631B041B0C8383704709090123AE
:107BA4008B409BB21AB1828892B2134303E082885D
:107BB40092B222EA03038380704783889BB20AB19E
:107BC400194301E023EA01018180704781817047F4
:107BD400808980B270474FF6FF63994203880BBFD8
:107BE40023F480739BB21B0443F4807308BF1B0C03
:107BF40003807047838819B19BB243F0040303E008
:107C040023F004031B041B0C83807047038823F4B4
:107C140000631B041B0C038003889BB2194301807F
:107C2400704703889BB243F48053038070470388F2
:107C340019B19BB243F4005303E023F400531B0433
:107C44001B0C03807047012914BF008B808A80B20B
:107C54007047008A80B270470388B1F5804F15BF22
:107C640023F480439BB21B0443F4804318BF1B0CD2
:107C7400038070470389194214BF01200020704714
:107C8400C94389B20181704710B5848803890122F0
:107C940001F00F009BB202FA00F01840A4B205D024
:107CA40009098A40144214BF0120002010BD01F0CC
:107CB4000F0101238B40DB439BB20381704700BF5C
:107CC400044B04281A680CBF42F0040222F0040298
:107CD4001A60704710E000E0014B5860704700BF25
:107CE40010E000E00128084B03D11A6842F00102B9
:107CF40004E0023004D11A6822F001021A607047CD
:107D040000229A60704700BF10E000E0044B1A683C
:107D140010B142F0020201E022F002021A60704740
:107D240010E000E0014B9868704700BF10E000E0ED
:107D3400C308022B044B0CBF1B68DB6823FA00F05A
:107D440000F00100704700BF10E000E030B5048C83
:107D540024F001042404240C0484048B058CA4B2B0
:107D6400ADB224F0F304224325F0020542EA0313E2
:107D740045F001059AB229430283018430BD30B530
:107D8400048C24F010042404240C0484058B048C37
:107D940025F44075A4B22D052D0D24F0200444F0E3
:107DA400100445EA022242EA033344EA01119BB279
:107DB4008CB20383048430BD08B52E4B98423AD06C
:107DC40010D8A3F50063984225D003F58063984248
:107DD4002BD0B0F1804F4CD101200146FFF7B0FD0C
:107DE40001201DE0244B984231D004D8A3F58063D0
:107DF400984226D008BD214B984204D003F5006375
:107E040098422AD008BD4FF400600121FFF78CFD91
:107E14004FF4006028E002200121FFF791FD0220C9
:107E24000021BDE80840FFF78BBD04200121FFF7C6
:107E340087FD0420F4E708200121FFF781FD0820D5
:107E4400EEE710200121FFF77BFD1020E8E720205A
:107E54000121FFF775FD2020E2E74FF400500121D6
:107E6400FFF762FD4FF400500021BDE80840FFF722
:107E74005BBD08BD000C004000140040002C014014
:107E8400038803F08F0303800388CA889BB21343DB
:107E94004A8813439BB203808B8883850B880385B0
:107EA40001238382044B984203D003F50063984274
:107EB40001D10B7A03867047002C0140038C70B506
:107EC40023F001031B041B0C0384038C8488028BA2
:107ED4000E8822F070021204120C23F002051643DD
:107EE4004B880A892D041343CA882D0C82860F4AB5
:107EF4002B439042A4B29BB203D002F5006290429D
:107F04000FD147F6FF454A8923F0080313438A88B3
:107F140023F0040325401343CC898A8914432C435A
:107F2400A4B284800683038470BD00BF002C01408A
:107F3400038C30B523F010031B041B0C0384038C47
:107F44008588028B0C8822F4E0421204120C42EA67
:107F5400042223F0200394B21B040A891B0C43EA75
:107F640002134A88ADB243EA0213CA889BB202875D
:107F7400104A904203D002F50062904216D123F0D9
:107F840080034A899BB243EA02124FF6BF7313403F
:107F94008A8843EA021347F2FF322A408D899BB252
:107FA40042EA8502CD8942EA8505ADB28580048323
:107FB400038430BD002C0140038C70B523F480731E
:107FC4001B041B0C0384038C8488828B0E8822F090
:107FD40070021204120C23F4007316431B040A8962
:107FE4001B0C43EA02234A88A4B243EA0223CA8848
:107FF4009BB28287104A904203D002F500629042FD
:1080040016D123F400634A8944F6FF759BB243EA10
:1080140002224FF6FF3325408C89134045EA0415AC
:108024008A88CC8943EA022345EA04149BB2A4B2A9
:1080340084808683038470BD002C0140038C30B59A
:1080440023F480531B041B0C0384038C8488828BCD
:108054000D8822F4E0421204120C23F4005342EA85
:1080640005221B040D891B0C43EA05334D88A4B279
:1080740043EA0533CD8892B2A0F84050084D9BB234
:10808400A84203D005F50065A84205D18989C4F347
:108094000D0444EA8114A4B284808283038430BD35
:1080A400002C01404A880B8813438A881343CA88EA
:1080B40013430A8913434A8913438A8913439BB29E
:1080C400A0F8443070474FF6FF7383800023038089
:1080D400C3804380037270470023038043808380FE
:1080E400C380038143818381C381704700230122BC
:1080F400038043808280C380038170470023038010
:1081040043808380C38003814381838170470388D4
:1081140019B19BB243F0010303E023F001039B0573
:108124009B0D03807047B0F8443029B16FEA434394
:108134006FEA53439BB201E0C3F30E03A0F844304B
:10814400704783899BB20AB1194301E023EA010114
:1081540081817047818270470A43A0F848207047A4
:1081640083899BB20AB1194301E023EA01018181A9
:108174007047038923F007031B041B0C038170471A
:10818400038923F070031B041B0C19430181038929
:108194009BB243F007030381704738B50D46602D49
:1081A400114604464FF0010202D1FFF7E8FD01E059
:1081B400FFF7CCFD218921F070010904090C294342
:1081C400218123899BB243F00703238138BD10B575
:1081D400048942EA0323E4B223439BB21943018195
:1081E40010BD10B50446FFF7F2FF238923F077038F
:1081F4001B041B0C43F07703238110BD10B5044608
:10820400FFF7E5FF23899BB243F48043238110BD2C
:10821400018582827047038823F070039B059B0DC0
:10822400194301807047038923F070031B041B0C5E
:1082340019430181704770B50689048B058C24F4B9
:108244004074ADB224F0030425F0220526F007069D
:1082540024042A433604240C360C44F4807442EA81
:108264000313314344F001049DB201810483058466
:1082740070BD038B23F070031B041B0C1943018393
:108284007047038B23F4E0431B041B0C43EA0121D6
:1082940089B201837047838B23F070031B041B0C8A
:1082A400194381837047838B23F4E0431B041B0C25
:1082B40043EA012189B281837047038819B19BB2D3
:1082C40043F0800303E023F080039B059B0D0380B0
:1082D4007047838819B19BB243F0040303E023F091
:1082E40004031B041B0C83807047838819B19BB261
:1082F40043F0080303E023F008031B041B0C8380F2
:108304007047838819B19BB243F0010303E023F063
:1083140001031B041B0C83807047038B23F00803A9
:108324001B041B0C194301837047038B23F4006364
:108334001B041B0C43EA012189B201837047838B20
:1083440023F008031B041B0C194381837047838BA0
:1083540023F400631B041B0C43EA012189B28183CB
:108364007047038B23F004031B041B0C1943018384
:108374007047038B23F480631B041B0C43EA012125
:1083840089B201837047838B23F004031B041B0C05
:10839400194381837047838B23F480631B041B0C74
:1083A40043EA012189B281837047038B23F0800360
:1083B4001B041B0C194301837047038BC3F30E0387
:1083C40043EA012189B201837047838B23F0800340
:1083D4001B041B0C194381837047838BC3F30E0367
:1083E40043EA012189B281837047038C23F002039D
:1083F4001B041B0C194301847047038C23F00803EE
:108404001B041B0C194301847047038C23F02003C5
:108414001B041B0C43EA011189B201847047038CCD
:1084240023F080031B041B0C43EA011189B201846D
:108434007047038C23F400731B041B0C43EA0121D3
:1084440089B201847047038C23F400631B041B0C62
:1084540043EA012189B201847047038C23F4005359
:108464001B041B0C43EA013189B201847047038C5D
:1084740010B59CB201238B4024EA03030384038CCC
:108484008A4013439BB2038410BD038C10B59CB285
:1084940004238B4024EA03030384038C8A4013439C
:1084A4009BB2038410BD10B5038C18309CB2012319
:1084B4008B4024EA0303038121F008033BB94FF600
:1084C4008F73490844582340435043580AE048F600
:1084D400FF730439C1F34E01445812022340435040
:1084E400435892B21A43425010BD038819B19BB24B
:1084F40043F0020303E023F002039B059B0D03807A
:108504007047038819B19BB243F0040303E023F0DE
:1085140004039B059B0D03807047838819B19BB2AC
:1085240043F0800303E023F080031B041B0C8380CF
:108534007047038823F008039B059B0D0380038881
:108544009BB2194301807047838823F070031B0496
:108554001B0C838083889BB21943818070470389F5
:1085640023F007031B041B0C038103899BB21943EB
:1085740001817047038923F080031B041B0C0381D2
:1085840003899BB2194301817047818470478185B7
:108594007047818670470187704781877047A0F8CC
:1085A40040107047038B23F00C031B041B0C038344
:1085B400038B9BB2194301837047038B23F44063FD
:1085C4001B041B0C0383038B9BB243EA012189B276
:1085D40001837047F8B50C464988A2880029B4F88D
:1085E40000E00CBF02270027012A05460CBF022623
:1085F40001262389BEF1000F11D1FFF7A7FB2846FE
:10860400E188FFF7CFFF2846394632462389FFF732
:10861400B6FB2846E188BDE8F840FFF7CEBFFFF778
:10862400AEFB2846E188FFF7C8FF284639463246A4
:108634002389FFF78BFB2846E188BDE8F840FFF764
:10864400B1BF838B23F00C031B041B0C8383838B2C
:108654009BB2194381837047838B23F440631B04CB
:108664001B0C8383838B9BB243EA012189B28183F0
:108674007047F8B50F460D8804464988BA883B8987
:108684003DB9FFF763FB2046F988BDE8F840FFF7E2
:1086940089BF042D07D1FFF772FB2046F988BDE896
:1086A400F840FFF78ABF082D058C20D125F480758A
:1086B4002D042D0C0584B0F81CE0068C1FFA8EFEE8
:1086C400B6B22EF0F30E26F400764EEA031346EA11
:1086D40001211FFA83FE89B24EEA020241F480713D
:1086E40082830184F988BDE8F840FFF7AABF25F426
:1086F40080552D042D0C0584868BB0F820E026F4DB
:1087040040752D051FFA8EFE2D0D45EA02252EF427
:10871400005242EA013145EA033389B29BB241F483
:10872400805183830184F988BDE8F840FFF794BF42
:108734000388DBB2038003889BB21943018070472E
:10874400808E80B27047008F80B27047808F80B275
:108754007047B0F8400080B27047808C80B2704798
:10876400008D80B27047038A194214BF0120002093
:108774007047C94389B201827047038A828911EA2A
:10878400030092B203D0114214BF012000207047AD
:10879400C94389B20182704708B5224B98422CD054
:1087A40008D8A3F50063984217D003F58063984274
:1087B4001BD008BD1C4B984227D003F56843984250
:1087C4002FD14FF480400121FFF7AEF8BDE80840F7
:1087D4004FF480400021FFF7A7B84FF40030012187
:1087E400FFF7AEF84FF4003016E04FF4802001217B
:1087F400FFF7A6F84FF480200EE04FF4002001218B
:10880400FFF79EF84FF4002006E04FF4801001219A
:10881400FFF796F84FF480100021BDE80840FFF7F9
:108824008FB808BD004C00400050004030B50D46E4
:108834000446038ACA889BB223F440531343038239
:1088440082890989AB8892B20B43698922F4B052B8
:108854000B4322F00C0213439BB28381838AAA89BF
:108864009BB223F4407387B01343838201A8FEF7BD
:10887400F5FF039B049A0E498C4218BF1A4619232C
:1088840053432A689200B3FBF2F26423B2FBF3F081
:108894000001010903FB112212013232B2FBF3F38E
:1088A40003F00F0303439BB2238107B030BD00BF25
:1088B400003801404FF4165303600C2200238380D8
:1088C400C380038142818381704710B54C880B8833
:1088D400028A23438C88C98892B223430B4322F42F
:1088E400706213439BB2038210BD00230380438054
:1088F4008380C3807047838919B19BB243F40053CA
:1089040003E023F400531B041B0C8381704710B550
:10891400C1F34214012301F01F01012C03FA01F3F6
:1089240001D10C3003E0022C0CBF1030143012B112
:108934000268134302E0026822EA0303036010BDE5
:10894400838A9BB20AB1194301E023EA01018182BF
:108954007047038A23F00F031B041B0C0382038A52
:108964009BB2194301827047838923F400631B047B
:108974001B0C838183899BB219438181704783894E
:1089840019B19BB243F0020303E023F002031B047A
:108994001B0C83817047038A23F020031B041B0CE8
:1089A4000382038A9BB2194301827047038A19B177
:1089B4009BB243F4804303E023F480431B041B0C69
:1089C40003827047C1F30801818070478088C0F337
:1089D4000800704783899BB243F001038381704789
:1089E400038BDBB20383038B9BB243EA0121018334
:1089F4007047038B03F47F430383038B9BB21943B8
:108A040001837047838A19B19BB243F0200303E0CA
:108A140023F020031B041B0C83827047838A19B143
:108A24009BB243F0100303E023F010031B041B0C60
:108A340083827047838A19B19BB243F0080303E031
:108A440023F008031B041B0C83827047838A23F0E2
:108A540004031B041B0C8382838A9BB21943818207
:108A64007047838A19B19BB243F0020303E023F0F9
:108A740002031B041B0C838270470388194214BF32
:108A8400012000207047C94389B201807047012347
:108A940010B5C1F3421401F01F029C4203FA02F222
:108AA40001D1838903E0022C0CBF038A838A9BB221
:108AB4001340028892B23BB1090A01238B4013424E
:108AC40014BF0120002010BD184610BD090A01235F
